{
  "contractName": "AnimeCrypto",
  "abi": [
    {
      "inputs": [],
      "stateMutability": "nonpayable",
      "type": "constructor"
    },
    {
      "anonymous": false,
      "inputs": [
        {
          "indexed": true,
          "internalType": "address",
          "name": "owner",
          "type": "address"
        },
        {
          "indexed": true,
          "internalType": "address",
          "name": "approved",
          "type": "address"
        },
        {
          "indexed": true,
          "internalType": "uint256",
          "name": "tokenId",
          "type": "uint256"
        }
      ],
      "name": "Approval",
      "type": "event"
    },
    {
      "anonymous": false,
      "inputs": [
        {
          "indexed": true,
          "internalType": "address",
          "name": "owner",
          "type": "address"
        },
        {
          "indexed": true,
          "internalType": "address",
          "name": "operator",
          "type": "address"
        },
        {
          "indexed": false,
          "internalType": "bool",
          "name": "approved",
          "type": "bool"
        }
      ],
      "name": "ApprovalForAll",
      "type": "event"
    },
    {
      "anonymous": false,
      "inputs": [
        {
          "indexed": true,
          "internalType": "address",
          "name": "from",
          "type": "address"
        },
        {
          "indexed": true,
          "internalType": "address",
          "name": "to",
          "type": "address"
        },
        {
          "indexed": true,
          "internalType": "uint256",
          "name": "tokenId",
          "type": "uint256"
        }
      ],
      "name": "Transfer",
      "type": "event"
    },
    {
      "inputs": [
        {
          "internalType": "address",
          "name": "to",
          "type": "address"
        },
        {
          "internalType": "uint256",
          "name": "tokenId",
          "type": "uint256"
        }
      ],
      "name": "approve",
      "outputs": [],
      "stateMutability": "nonpayable",
      "type": "function"
    },
    {
      "inputs": [
        {
          "internalType": "address",
          "name": "owner",
          "type": "address"
        }
      ],
      "name": "balanceOf",
      "outputs": [
        {
          "internalType": "uint256",
          "name": "",
          "type": "uint256"
        }
      ],
      "stateMutability": "view",
      "type": "function",
      "constant": true
    },
    {
      "inputs": [],
      "name": "countOfUsersRegistered",
      "outputs": [
        {
          "internalType": "uint256",
          "name": "",
          "type": "uint256"
        }
      ],
      "stateMutability": "view",
      "type": "function",
      "constant": true
    },
    {
      "inputs": [
        {
          "internalType": "uint256",
          "name": "tokenId",
          "type": "uint256"
        }
      ],
      "name": "getApproved",
      "outputs": [
        {
          "internalType": "address",
          "name": "",
          "type": "address"
        }
      ],
      "stateMutability": "view",
      "type": "function",
      "constant": true
    },
    {
      "inputs": [
        {
          "internalType": "address",
          "name": "owner",
          "type": "address"
        },
        {
          "internalType": "address",
          "name": "operator",
          "type": "address"
        }
      ],
      "name": "isApprovedForAll",
      "outputs": [
        {
          "internalType": "bool",
          "name": "",
          "type": "bool"
        }
      ],
      "stateMutability": "view",
      "type": "function",
      "constant": true
    },
    {
      "inputs": [
        {
          "internalType": "uint256",
          "name": "",
          "type": "uint256"
        }
      ],
      "name": "mappingIdToCards",
      "outputs": [
        {
          "internalType": "address",
          "name": "",
          "type": "address"
        }
      ],
      "stateMutability": "view",
      "type": "function",
      "constant": true
    },
    {
      "inputs": [],
      "name": "name",
      "outputs": [
        {
          "internalType": "string",
          "name": "",
          "type": "string"
        }
      ],
      "stateMutability": "view",
      "type": "function",
      "constant": true
    },
    {
      "inputs": [],
      "name": "owner",
      "outputs": [
        {
          "internalType": "address",
          "name": "",
          "type": "address"
        }
      ],
      "stateMutability": "view",
      "type": "function",
      "constant": true
    },
    {
      "inputs": [
        {
          "internalType": "uint256",
          "name": "tokenId",
          "type": "uint256"
        }
      ],
      "name": "ownerOf",
      "outputs": [
        {
          "internalType": "address",
          "name": "",
          "type": "address"
        }
      ],
      "stateMutability": "view",
      "type": "function",
      "constant": true
    },
    {
      "inputs": [
        {
          "internalType": "address",
          "name": "",
          "type": "address"
        }
      ],
      "name": "playerExist",
      "outputs": [
        {
          "internalType": "bool",
          "name": "",
          "type": "bool"
        }
      ],
      "stateMutability": "view",
      "type": "function",
      "constant": true
    },
    {
      "inputs": [
        {
          "internalType": "uint256",
          "name": "",
          "type": "uint256"
        }
      ],
      "name": "playersInfo",
      "outputs": [
        {
          "internalType": "uint256",
          "name": "playerId",
          "type": "uint256"
        },
        {
          "internalType": "uint256",
          "name": "Affinity",
          "type": "uint256"
        },
        {
          "internalType": "uint32",
          "name": "CharacterLevel",
          "type": "uint32"
        }
      ],
      "stateMutability": "view",
      "type": "function",
      "constant": true
    },
    {
      "inputs": [
        {
          "internalType": "uint256",
          "name": "",
          "type": "uint256"
        }
      ],
      "name": "powerCardInfo",
      "outputs": [
        {
          "internalType": "string",
          "name": "powerName",
          "type": "string"
        },
        {
          "internalType": "uint32",
          "name": "level",
          "type": "uint32"
        },
        {
          "internalType": "uint32",
          "name": "createdAt",
          "type": "uint32"
        },
        {
          "internalType": "uint32",
          "name": "timeToNextLevel",
          "type": "uint32"
        }
      ],
      "stateMutability": "view",
      "type": "function",
      "constant": true
    },
    {
      "inputs": [
        {
          "internalType": "address",
          "name": "from",
          "type": "address"
        },
        {
          "internalType": "address",
          "name": "to",
          "type": "address"
        },
        {
          "internalType": "uint256",
          "name": "tokenId",
          "type": "uint256"
        }
      ],
      "name": "safeTransferFrom",
      "outputs": [],
      "stateMutability": "nonpayable",
      "type": "function"
    },
    {
      "inputs": [
        {
          "internalType": "address",
          "name": "from",
          "type": "address"
        },
        {
          "internalType": "address",
          "name": "to",
          "type": "address"
        },
        {
          "internalType": "uint256",
          "name": "tokenId",
          "type": "uint256"
        },
        {
          "internalType": "bytes",
          "name": "_data",
          "type": "bytes"
        }
      ],
      "name": "safeTransferFrom",
      "outputs": [],
      "stateMutability": "nonpayable",
      "type": "function"
    },
    {
      "inputs": [
        {
          "internalType": "address",
          "name": "operator",
          "type": "address"
        },
        {
          "internalType": "bool",
          "name": "approved",
          "type": "bool"
        }
      ],
      "name": "setApprovalForAll",
      "outputs": [],
      "stateMutability": "nonpayable",
      "type": "function"
    },
    {
      "inputs": [
        {
          "internalType": "bytes4",
          "name": "interfaceId",
          "type": "bytes4"
        }
      ],
      "name": "supportsInterface",
      "outputs": [
        {
          "internalType": "bool",
          "name": "",
          "type": "bool"
        }
      ],
      "stateMutability": "view",
      "type": "function",
      "constant": true
    },
    {
      "inputs": [],
      "name": "symbol",
      "outputs": [
        {
          "internalType": "string",
          "name": "",
          "type": "string"
        }
      ],
      "stateMutability": "view",
      "type": "function",
      "constant": true
    },
    {
      "inputs": [
        {
          "internalType": "uint256",
          "name": "tokenId",
          "type": "uint256"
        }
      ],
      "name": "tokenURI",
      "outputs": [
        {
          "internalType": "string",
          "name": "",
          "type": "string"
        }
      ],
      "stateMutability": "view",
      "type": "function",
      "constant": true
    },
    {
      "inputs": [],
      "name": "totalNumberOfCards",
      "outputs": [
        {
          "internalType": "uint256",
          "name": "",
          "type": "uint256"
        }
      ],
      "stateMutability": "view",
      "type": "function",
      "constant": true
    },
    {
      "inputs": [
        {
          "internalType": "address",
          "name": "from",
          "type": "address"
        },
        {
          "internalType": "address",
          "name": "to",
          "type": "address"
        },
        {
          "internalType": "uint256",
          "name": "tokenId",
          "type": "uint256"
        }
      ],
      "name": "transferFrom",
      "outputs": [],
      "stateMutability": "nonpayable",
      "type": "function"
    },
    {
      "inputs": [],
      "name": "createPlayerProfile",
      "outputs": [],
      "stateMutability": "nonpayable",
      "type": "function"
    },
    {
      "inputs": [
        {
          "internalType": "address",
          "name": "_owner",
          "type": "address"
        }
      ],
      "name": "fetchCards",
      "outputs": [
        {
          "internalType": "uint256[]",
          "name": "ownerTokens",
          "type": "uint256[]"
        }
      ],
      "stateMutability": "view",
      "type": "function",
      "constant": true
    },
    {
      "inputs": [],
      "name": "createCardsForUser",
      "outputs": [],
      "stateMutability": "nonpayable",
      "type": "function"
    }
  ],
  "bytecode": "0x60806040523480156200001157600080fd5b506040518060400160405280600b81526020017f416e696d6543727970746f0000000000000000000000000000000000000000008152506040518060400160405280600281526020017f414300000000000000000000000000000000000000000000000000000000000081525081600090805190602001906200009692919062000119565b508060019080519060200190620000af92919062000119565b505050620000cb62000111640100000000026401000000009004565b600660006101000a81548173ffffffffffffffffffffffffffffffffffffffff021916908373ffffffffffffffffffffffffffffffffffffffff1602179055506200022e565b600033905090565b8280546200012790620001c9565b90600052602060002090601f0160209004810192826200014b576000855562000197565b82601f106200016657805160ff191683800117855562000197565b8280016001018555821562000197579182015b828111156200019657825182559160200191906001019062000179565b5b509050620001a69190620001aa565b5090565b5b80821115620001c5576000816000905550600101620001ab565b5090565b60006002820490506001821680620001e257607f821691505b60208210811415620001f957620001f8620001ff565b5b50919050565b7f4e487b7100000000000000000000000000000000000000000000000000000000600052602260045260246000fd5b61304b806200023e6000396000f3fe608060405234801561001057600080fd5b506004361061016a576000357c0100000000000000000000000000000000000000000000000000000000900480638da5cb5b116100e0578063bb164d7111610099578063bb164d71146103bb578063c4395ab4146103ee578063c87b56dd146103f8578063d5af7ebe14610428578063e985e9c51461045a578063fff072411461048a5761016a565b80638da5cb5b1461031f5780639550f23b1461033d57806395d89b4114610347578063a22cb46514610365578063aec79f5b14610381578063b88d4fde1461039f5761016a565b8063196779ff11610132578063196779ff1461022757806323b872dd1461025757806329485e5b1461027357806342842e0e146102a35780636352211e146102bf57806370a08231146102ef5761016a565b806301ffc9a71461016f57806306fdde031461019f578063081812fc146101bd578063095ea7b3146101ed578063144be7eb14610209575b600080fd5b6101896004803603810190610184919061213b565b6104ba565b604051610196919061293d565b60405180910390f35b6101a761059c565b6040516101b49190612958565b60405180910390f35b6101d760048036038101906101d2919061218d565b61062e565b6040516101e491906128b4565b60405180910390f35b610207600480360381019061020291906120ff565b6106b3565b005b6102116107cb565b60405161021e9190612b86565b60405180910390f35b610241600480360381019061023c9190611f94565b6107d1565b60405161024e919061291b565b60405180910390f35b610271600480360381019061026c9190611ff9565b6109c3565b005b61028d6004803603810190610288919061218d565b610a23565b60405161029a91906128b4565b60405180910390f35b6102bd60048036038101906102b89190611ff9565b610a56565b005b6102d960048036038101906102d4919061218d565b610a76565b6040516102e691906128b4565b60405180910390f35b61030960048036038101906103049190611f94565b610b28565b6040516103169190612b86565b60405180910390f35b610327610be0565b60405161033491906128b4565b60405180910390f35b610345610c06565b005b61034f610ceb565b60405161035c9190612958565b60405180910390f35b61037f600480360381019061037a91906120c3565b610d7d565b005b610389610efe565b6040516103969190612b86565b60405180910390f35b6103b960048036038101906103b49190612048565b610f04565b005b6103d560048036038101906103d0919061218d565b610f66565b6040516103e5949392919061297a565b60405180910390f35b6103f661104e565b005b610412600480360381019061040d919061218d565b6111ac565b60405161041f9190612958565b60405180910390f35b610442600480360381019061043d919061218d565b611253565b60405161045193929190612ba1565b60405180910390f35b610474600480360381019061046f9190611fbd565b61128d565b604051610481919061293d565b60405180910390f35b6104a4600480360381019061049f9190611f94565b611321565b6040516104b1919061293d565b60405180910390f35b60007f80ac58cd000000000000000000000000000000000000000000000000000000007bffffffffffffffffffffffffffffffffffffffffffffffffffffffff1916827bffffffffffffffffffffffffffffffffffffffffffffffffffffffff1916148061058557507f5b5e139f000000000000000000000000000000000000000000000000000000007bffffffffffffffffffffffffffffffffffffffffffffffffffffffff1916827bffffffffffffffffffffffffffffffffffffffffffffffffffffffff1916145b80610595575061059482611341565b5b9050919050565b6060600080546105ab90612e36565b80601f01602080910402602001604051908101604052809291908181526020018280546105d790612e36565b80156106245780601f106105f957610100808354040283529160200191610624565b820191906000526020600020905b81548152906001019060200180831161060757829003601f168201915b5050505050905090565b6000610639826113ab565b610678576040517f08c379a000000000000000000000000000000000000000000000000000000000815260040161066f90612ae6565b60405180910390fd5b6004600083815260200190815260200160002060009054906101000a900473ffffffffffffffffffffffffffffffffffffffff169050919050565b60006106be82610a76565b90508073ffffffffffffffffffffffffffffffffffffffff168373ffffffffffffffffffffffffffffffffffffffff16141561072f576040517f08c379a000000000000000000000000000000000000000000000000000000000815260040161072690612b46565b60405180910390fd5b8073ffffffffffffffffffffffffffffffffffffffff1661074e611417565b73ffffffffffffffffffffffffffffffffffffffff16148061077d575061077c81610777611417565b61128d565b5b6107bc576040517f08c379a00000000000000000000000000000000000000000000000000000000081526004016107b390612a66565b60405180910390fd5b6107c6838361141f565b505050565b600a5481565b606060006107de83610b28565b9050600081141561086157600067ffffffffffffffff81111561082a577f4e487b7100000000000000000000000000000000000000000000000000000000600052604160045260246000fd5b6040519080825280602002602001820160405280156108585781602001602082028036833780820191505090505b509150506109be565b600080600a5467ffffffffffffffff8111156108a6577f4e487b7100000000000000000000000000000000000000000000000000000000600052604160045260246000fd5b6040519080825280602002602001820160405280156108d45781602001602082028036833780820191505090505b5090506000600192505b600a5483116109b6578573ffffffffffffffffffffffffffffffffffffffff16600c600085815260200190815260200160002060009054906101000a900473ffffffffffffffffffffffffffffffffffffffff1673ffffffffffffffffffffffffffffffffffffffff1614156109a35782828281518110610988577f4e487b7100000000000000000000000000000000000000000000000000000000600052603260045260246000fd5b602002602001018181525050808061099f90612e68565b9150505b82806109ae90612e68565b9350506108de565b819450505050505b919050565b6109d46109ce611417565b826114d8565b610a13576040517f08c379a0000000000000000000000000000000000000000000000000000000008152600401610a0a90612b66565b60405180910390fd5b610a1e8383836115b6565b505050565b600c6020528060005260406000206000915054906101000a900473ffffffffffffffffffffffffffffffffffffffff1681565b610a7183838360405180602001604052806000815250610f04565b505050565b6000806002600084815260200190815260200160002060009054906101000a900473ffffffffffffffffffffffffffffffffffffffff169050600073ffffffffffffffffffffffffffffffffffffffff168173ffffffffffffffffffffffffffffffffffffffff161415610b1f576040517f08c379a0000000000000000000000000000000000000000000000000000000008152600401610b1690612aa6565b60405180910390fd5b80915050919050565b60008073ffffffffffffffffffffffffffffffffffffffff168273ffffffffffffffffffffffffffffffffffffffff161415610b99576040517f08c379a0000000000000000000000000000000000000000000000000000000008152600401610b9090612a86565b60405180910390fd5b600360008373ffffffffffffffffffffffffffffffffffffffff1673ffffffffffffffffffffffffffffffffffffffff168152602001908152602001600020549050919050565b600660009054906101000a900473ffffffffffffffffffffffffffffffffffffffff1681565b60096000610c12611417565b73ffffffffffffffffffffffffffffffffffffffff1673ffffffffffffffffffffffffffffffffffffffff16815260200190815260200160002060009054906101000a900460ff16610c6357600080fd5b600a6000815480929190610c7690612e68565b9190505550610c8e610c86611417565b600a54611812565b610c96611417565b600c6000600a54815260200190815260200160002060006101000a81548173ffffffffffffffffffffffffffffffffffffffff021916908373ffffffffffffffffffffffffffffffffffffffff160217905550565b606060018054610cfa90612e36565b80601f0160208091040260200160405190810160405280929190818152602001828054610d2690612e36565b8015610d735780601f10610d4857610100808354040283529160200191610d73565b820191906000526020600020905b815481529060010190602001808311610d5657829003601f168201915b5050505050905090565b610d85611417565b73ffffffffffffffffffffffffffffffffffffffff168273ffffffffffffffffffffffffffffffffffffffff161415610df3576040517f08c379a0000000000000000000000000000000000000000000000000000000008152600401610dea90612a26565b60405180910390fd5b8060056000610e00611417565b73ffffffffffffffffffffffffffffffffffffffff1673ffffffffffffffffffffffffffffffffffffffff16815260200190815260200160002060008473ffffffffffffffffffffffffffffffffffffffff1673ffffffffffffffffffffffffffffffffffffffff16815260200190815260200160002060006101000a81548160ff0219169083151502179055508173ffffffffffffffffffffffffffffffffffffffff16610ead611417565b73ffffffffffffffffffffffffffffffffffffffff167f17307eab39ab6107e8899845ad3d59bd9653f200f220920489ca2b5937696c3183604051610ef2919061293d565b60405180910390a35050565b60075481565b610f15610f0f611417565b836114d8565b610f54576040517f08c379a0000000000000000000000000000000000000000000000000000000008152600401610f4b90612b66565b60405180910390fd5b610f6084848484611830565b50505050565b600b602052806000526040600020600091509050806000018054610f8990612e36565b80601f0160208091040260200160405190810160405280929190818152602001828054610fb590612e36565b80156110025780601f10610fd757610100808354040283529160200191611002565b820191906000526020600020905b815481529060010190602001808311610fe557829003601f168201915b5050505050908060010160009054906101000a900463ffffffff16908060010160049054906101000a900463ffffffff16908060010160089054906101000a900463ffffffff16905084565b6009600061105a611417565b73ffffffffffffffffffffffffffffffffffffffff1673ffffffffffffffffffffffffffffffffffffffff16815260200190815260200160002060009054906101000a900460ff16156110ac57600080fd5b600760008154809291906110bf90612e68565b919050555060006110d160075461188c565b905060405180606001604052806007548152602001828152602001600163ffffffff16815250600860006007548152602001908152602001600020600082015181600001556020820151816001015560408201518160020160006101000a81548163ffffffff021916908363ffffffff160217905550905050600160096000611158611417565b73ffffffffffffffffffffffffffffffffffffffff1673ffffffffffffffffffffffffffffffffffffffff16815260200190815260200160002060006101000a81548160ff02191690831515021790555050565b60606111b7826113ab565b6111f6576040517f08c379a00000000000000000000000000000000000000000000000000000000081526004016111ed90612b26565b60405180910390fd5b60006112006118d0565b90506000815111611220576040518060200160405280600081525061124b565b8061122a846118e7565b60405160200161123b929190612853565b6040516020818303038152906040525b915050919050565b60086020528060005260406000206000915090508060000154908060010154908060020160009054906101000a900463ffffffff16905083565b6000600560008473ffffffffffffffffffffffffffffffffffffffff1673ffffffffffffffffffffffffffffffffffffffff16815260200190815260200160002060008373ffffffffffffffffffffffffffffffffffffffff1673ffffffffffffffffffffffffffffffffffffffff16815260200190815260200160002060009054906101000a900460ff16905092915050565b60096020528060005260406000206000915054906101000a900460ff1681565b60007f01ffc9a7000000000000000000000000000000000000000000000000000000007bffffffffffffffffffffffffffffffffffffffffffffffffffffffff1916827bffffffffffffffffffffffffffffffffffffffffffffffffffffffff1916149050919050565b60008073ffffffffffffffffffffffffffffffffffffffff166002600084815260200190815260200160002060009054906101000a900473ffffffffffffffffffffffffffffffffffffffff1673ffffffffffffffffffffffffffffffffffffffff1614159050919050565b600033905090565b816004600083815260200190815260200160002060006101000a81548173ffffffffffffffffffffffffffffffffffffffff021916908373ffffffffffffffffffffffffffffffffffffffff160217905550808273ffffffffffffffffffffffffffffffffffffffff1661149283610a76565b73ffffffffffffffffffffffffffffffffffffffff167f8c5be1e5ebec7d5bd14f71427d1e84f3dd0314c0f7b2291e5b200ac8c7c3b92560405160405180910390a45050565b60006114e3826113ab565b611522576040517f08c379a000000000000000000000000000000000000000000000000000000000815260040161151990612a46565b60405180910390fd5b600061152d83610a76565b90508073ffffffffffffffffffffffffffffffffffffffff168473ffffffffffffffffffffffffffffffffffffffff16148061159c57508373ffffffffffffffffffffffffffffffffffffffff166115848461062e565b73ffffffffffffffffffffffffffffffffffffffff16145b806115ad57506115ac818561128d565b5b91505092915050565b8273ffffffffffffffffffffffffffffffffffffffff166115d682610a76565b73ffffffffffffffffffffffffffffffffffffffff161461162c576040517f08c379a000000000000000000000000000000000000000000000000000000000815260040161162390612b06565b60405180910390fd5b600073ffffffffffffffffffffffffffffffffffffffff168273ffffffffffffffffffffffffffffffffffffffff16141561169c576040517f08c379a000000000000000000000000000000000000000000000000000000000815260040161169390612a06565b60405180910390fd5b6116a7838383611ab3565b6116b260008261141f565b6001600360008573ffffffffffffffffffffffffffffffffffffffff1673ffffffffffffffffffffffffffffffffffffffff16815260200190815260200160002060008282546117029190612d3c565b925050819055506001600360008473ffffffffffffffffffffffffffffffffffffffff1673ffffffffffffffffffffffffffffffffffffffff16815260200190815260200160002060008282546117599190612cb5565b92505081905550816002600083815260200190815260200160002060006101000a81548173ffffffffffffffffffffffffffffffffffffffff021916908373ffffffffffffffffffffffffffffffffffffffff160217905550808273ffffffffffffffffffffffffffffffffffffffff168473ffffffffffffffffffffffffffffffffffffffff167fddf252ad1be2c89b69c2b068fc378daa952ba7f163c4a11628f55a4df523b3ef60405160405180910390a4505050565b61182c828260405180602001604052806000815250611ab8565b5050565b61183b8484846115b6565b61184784848484611b13565b611886576040517f08c379a000000000000000000000000000000000000000000000000000000000815260040161187d906129c6565b60405180910390fd5b50505050565b600060054442846040516020016118a593929190612877565b60405160208183030381529060405280519060200120600190046118c99190612ebb565b9050919050565b606060405180602001604052806000815250905090565b6060600082141561192f576040518060400160405280600181526020017f30000000000000000000000000000000000000000000000000000000000000008152509050611aae565b600082905060005b6000821461196157808061194a90612e68565b915050600a8261195a9190612d0b565b9150611937565b60008167ffffffffffffffff8111156119a3577f4e487b7100000000000000000000000000000000000000000000000000000000600052604160045260246000fd5b6040519080825280601f01601f1916602001820160405280156119d55781602001600182028036833780820191505090505b5090505b60008514611aa7576001826119ee9190612d3c565b9150600a856119fd9190612ebb565b6030611a099190612cb5565b7f010000000000000000000000000000000000000000000000000000000000000002818381518110611a64577f4e487b7100000000000000000000000000000000000000000000000000000000600052603260045260246000fd5b60200101907effffffffffffffffffffffffffffffffffffffffffffffffffffffffffffff1916908160001a905350600a85611aa09190612d0b565b94506119d9565b8093505050505b919050565b505050565b611ac28383611ce2565b611acf6000848484611b13565b611b0e576040517f08c379a0000000000000000000000000000000000000000000000000000000008152600401611b05906129c6565b60405180910390fd5b505050565b6000611b348473ffffffffffffffffffffffffffffffffffffffff16611eb0565b15611cd5578373ffffffffffffffffffffffffffffffffffffffff1663150b7a02611b5d611417565b8786866040518563ffffffff167c0100000000000000000000000000000000000000000000000000000000028152600401611b9b94939291906128cf565b602060405180830381600087803b158015611bb557600080fd5b505af1925050508015611be657506040513d601f19601f82011682018060405250810190611be39190612164565b60015b611c69573d8060008114611c16576040519150601f19603f3d011682016040523d82523d6000602084013e611c1b565b606091505b50600081511415611c61576040517f08c379a0000000000000000000000000000000000000000000000000000000008152600401611c58906129c6565b60405180910390fd5b805181602001fd5b63150b7a027c0100000000000000000000000000000000000000000000000000000000027bffffffffffffffffffffffffffffffffffffffffffffffffffffffff1916817bffffffffffffffffffffffffffffffffffffffffffffffffffffffff191614915050611cda565b600190505b949350505050565b600073ffffffffffffffffffffffffffffffffffffffff168273ffffffffffffffffffffffffffffffffffffffff161415611d52576040517f08c379a0000000000000000000000000000000000000000000000000000000008152600401611d4990612ac6565b60405180910390fd5b611d5b816113ab565b15611d9b576040517f08c379a0000000000000000000000000000000000000000000000000000000008152600401611d92906129e6565b60405180910390fd5b611da760008383611ab3565b6001600360008473ffffffffffffffffffffffffffffffffffffffff1673ffffffffffffffffffffffffffffffffffffffff1681526020019081526020016000206000828254611df79190612cb5565b92505081905550816002600083815260200190815260200160002060006101000a81548173ffffffffffffffffffffffffffffffffffffffff021916908373ffffffffffffffffffffffffffffffffffffffff160217905550808273ffffffffffffffffffffffffffffffffffffffff16600073ffffffffffffffffffffffffffffffffffffffff167fddf252ad1be2c89b69c2b068fc378daa952ba7f163c4a11628f55a4df523b3ef60405160405180910390a45050565b600080823b905060008111915050919050565b6000611ed6611ed184612c09565b612bd8565b905082815260208101848484011115611eee57600080fd5b611ef9848285612df4565b509392505050565b600081359050611f1081612fb9565b92915050565b600081359050611f2581612fd0565b92915050565b600081359050611f3a81612fe7565b92915050565b600081519050611f4f81612fe7565b92915050565b600082601f830112611f6657600080fd5b8135611f76848260208601611ec3565b91505092915050565b600081359050611f8e81612ffe565b92915050565b600060208284031215611fa657600080fd5b6000611fb484828501611f01565b91505092915050565b60008060408385031215611fd057600080fd5b6000611fde85828601611f01565b9250506020611fef85828601611f01565b9150509250929050565b60008060006060848603121561200e57600080fd5b600061201c86828701611f01565b935050602061202d86828701611f01565b925050604061203e86828701611f7f565b9150509250925092565b6000806000806080858703121561205e57600080fd5b600061206c87828801611f01565b945050602061207d87828801611f01565b935050604061208e87828801611f7f565b925050606085013567ffffffffffffffff8111156120ab57600080fd5b6120b787828801611f55565b91505092959194509250565b600080604083850312156120d657600080fd5b60006120e485828601611f01565b92505060206120f585828601611f16565b9150509250929050565b6000806040838503121561211257600080fd5b600061212085828601611f01565b925050602061213185828601611f7f565b9150509250929050565b60006020828403121561214d57600080fd5b600061215b84828501611f2b565b91505092915050565b60006020828403121561217657600080fd5b600061218484828501611f40565b91505092915050565b60006020828403121561219f57600080fd5b60006121ad84828501611f7f565b91505092915050565b60006121c2838361280f565b60208301905092915050565b6121d781612d70565b82525050565b60006121e882612c49565b6121f28185612c77565b93506121fd83612c39565b8060005b8381101561222e57815161221588826121b6565b975061222083612c6a565b925050600181019050612201565b5085935050505092915050565b61224481612d82565b82525050565b600061225582612c54565b61225f8185612c88565b935061226f818560208601612e03565b61227881612fa8565b840191505092915050565b600061228e82612c5f565b6122988185612c99565b93506122a8818560208601612e03565b6122b181612fa8565b840191505092915050565b60006122c782612c5f565b6122d18185612caa565b93506122e1818560208601612e03565b80840191505092915050565b60006122fa603283612c99565b91507f4552433732313a207472616e7366657220746f206e6f6e20455243373231526560008301527f63656976657220696d706c656d656e74657200000000000000000000000000006020830152604082019050919050565b6000612360601c83612c99565b91507f4552433732313a20746f6b656e20616c7265616479206d696e746564000000006000830152602082019050919050565b60006123a0602483612c99565b91507f4552433732313a207472616e7366657220746f20746865207a65726f2061646460008301527f72657373000000000000000000000000000000000000000000000000000000006020830152604082019050919050565b6000612406601983612c99565b91507f4552433732313a20617070726f766520746f2063616c6c6572000000000000006000830152602082019050919050565b6000612446602c83612c99565b91507f4552433732313a206f70657261746f7220717565727920666f72206e6f6e657860008301527f697374656e7420746f6b656e00000000000000000000000000000000000000006020830152604082019050919050565b60006124ac603883612c99565b91507f4552433732313a20617070726f76652063616c6c6572206973206e6f74206f7760008301527f6e6572206e6f7220617070726f76656420666f7220616c6c00000000000000006020830152604082019050919050565b6000612512602a83612c99565b91507f4552433732313a2062616c616e636520717565727920666f7220746865207a6560008301527f726f2061646472657373000000000000000000000000000000000000000000006020830152604082019050919050565b6000612578602983612c99565b91507f4552433732313a206f776e657220717565727920666f72206e6f6e657869737460008301527f656e7420746f6b656e00000000000000000000000000000000000000000000006020830152604082019050919050565b60006125de602083612c99565b91507f4552433732313a206d696e7420746f20746865207a65726f20616464726573736000830152602082019050919050565b600061261e602c83612c99565b91507f4552433732313a20617070726f76656420717565727920666f72206e6f6e657860008301527f697374656e7420746f6b656e00000000000000000000000000000000000000006020830152604082019050919050565b6000612684602983612c99565b91507f4552433732313a207472616e73666572206f6620746f6b656e2074686174206960008301527f73206e6f74206f776e00000000000000000000000000000000000000000000006020830152604082019050919050565b60006126ea602f83612c99565b91507f4552433732314d657461646174613a2055524920717565727920666f72206e6f60008301527f6e6578697374656e7420746f6b656e00000000000000000000000000000000006020830152604082019050919050565b6000612750602183612c99565b91507f4552433732313a20617070726f76616c20746f2063757272656e74206f776e6560008301527f72000000000000000000000000000000000000000000000000000000000000006020830152604082019050919050565b60006127b6603183612c99565b91507f4552433732313a207472616e736665722063616c6c6572206973206e6f74206f60008301527f776e6572206e6f7220617070726f7665640000000000000000000000000000006020830152604082019050919050565b61281881612dda565b82525050565b61282781612dda565b82525050565b61283e61283982612dda565b612eb1565b82525050565b61284d81612de4565b82525050565b600061285f82856122bc565b915061286b82846122bc565b91508190509392505050565b6000612883828661282d565b602082019150612893828561282d565b6020820191506128a3828461282d565b602082019150819050949350505050565b60006020820190506128c960008301846121ce565b92915050565b60006080820190506128e460008301876121ce565b6128f160208301866121ce565b6128fe604083018561281e565b8181036060830152612910818461224a565b905095945050505050565b6000602082019050818103600083015261293581846121dd565b905092915050565b6000602082019050612952600083018461223b565b92915050565b600060208201905081810360008301526129728184612283565b905092915050565b600060808201905081810360008301526129948187612283565b90506129a36020830186612844565b6129b06040830185612844565b6129bd6060830184612844565b95945050505050565b600060208201905081810360008301526129df816122ed565b9050919050565b600060208201905081810360008301526129ff81612353565b9050919050565b60006020820190508181036000830152612a1f81612393565b9050919050565b60006020820190508181036000830152612a3f816123f9565b9050919050565b60006020820190508181036000830152612a5f81612439565b9050919050565b60006020820190508181036000830152612a7f8161249f565b9050919050565b60006020820190508181036000830152612a9f81612505565b9050919050565b60006020820190508181036000830152612abf8161256b565b9050919050565b60006020820190508181036000830152612adf816125d1565b9050919050565b60006020820190508181036000830152612aff81612611565b9050919050565b60006020820190508181036000830152612b1f81612677565b9050919050565b60006020820190508181036000830152612b3f816126dd565b9050919050565b60006020820190508181036000830152612b5f81612743565b9050919050565b60006020820190508181036000830152612b7f816127a9565b9050919050565b6000602082019050612b9b600083018461281e565b92915050565b6000606082019050612bb6600083018661281e565b612bc3602083018561281e565b612bd06040830184612844565b949350505050565b6000604051905081810181811067ffffffffffffffff82111715612bff57612bfe612f79565b5b8060405250919050565b600067ffffffffffffffff821115612c2457612c23612f79565b5b601f19601f8301169050602081019050919050565b6000819050602082019050919050565b600081519050919050565b600081519050919050565b600081519050919050565b6000602082019050919050565b600082825260208201905092915050565b600082825260208201905092915050565b600082825260208201905092915050565b600081905092915050565b6000612cc082612dda565b9150612ccb83612dda565b9250827fffffffffffffffffffffffffffffffffffffffffffffffffffffffffffffffff03821115612d0057612cff612eec565b5b828201905092915050565b6000612d1682612dda565b9150612d2183612dda565b925082612d3157612d30612f1b565b5b828204905092915050565b6000612d4782612dda565b9150612d5283612dda565b925082821015612d6557612d64612eec565b5b828203905092915050565b6000612d7b82612dba565b9050919050565b60008115159050919050565b60007fffffffff0000000000000000000000000000000000000000000000000000000082169050919050565b600073ffffffffffffffffffffffffffffffffffffffff82169050919050565b6000819050919050565b600063ffffffff82169050919050565b82818337600083830152505050565b60005b83811015612e21578082015181840152602081019050612e06565b83811115612e30576000848401525b50505050565b60006002820490506001821680612e4e57607f821691505b60208210811415612e6257612e61612f4a565b5b50919050565b6000612e7382612dda565b91507fffffffffffffffffffffffffffffffffffffffffffffffffffffffffffffffff821415612ea657612ea5612eec565b5b600182019050919050565b6000819050919050565b6000612ec682612dda565b9150612ed183612dda565b925082612ee157612ee0612f1b565b5b828206905092915050565b7f4e487b7100000000000000000000000000000000000000000000000000000000600052601160045260246000fd5b7f4e487b7100000000000000000000000000000000000000000000000000000000600052601260045260246000fd5b7f4e487b7100000000000000000000000000000000000000000000000000000000600052602260045260246000fd5b7f4e487b7100000000000000000000000000000000000000000000000000000000600052604160045260246000fd5b6000601f19601f8301169050919050565b612fc281612d70565b8114612fcd57600080fd5b50565b612fd981612d82565b8114612fe457600080fd5b50565b612ff081612d8e565b8114612ffb57600080fd5b50565b61300781612dda565b811461301257600080fd5b5056fea264697066735822122040f64063b5f495b89bd4e5dbf1da8f37319c05446144ec30851cae4a0ffacf5764736f6c63430008000033",
  "immutableReferences": {},
  "source": "// SPDX-License-Identifier: MIT\r\npragma solidity >=0.4.22 <0.9.0;\r\nimport \"./ERC721_flattened.sol\";\r\n\r\n\r\ncontract AnimeCrypto is ERC721 {\r\n    address public owner;\r\n    uint256 public countOfUsersRegistered;\r\n    mapping(uint256 => PlayerSpecs) public playersInfo;\r\n    mapping(address => bool) public playerExist;\r\n    uint256 public totalNumberOfCards;\r\n    mapping(uint256 => PowerCardSpecs) public powerCardInfo;\r\n    mapping(uint256 => address) public mappingIdToCards;\r\n\r\n    struct PlayerSpecs {\r\n      uint256 playerId;\r\n      uint256 Affinity;\r\n      uint32 CharacterLevel;\r\n    }\r\n\r\n    struct PowerCardSpecs {\r\n      string powerName;\r\n      uint32 level;\r\n      uint32 createdAt;\r\n      uint32 timeToNextLevel;\r\n    }\r\n\r\n    mapping(address => PlayerSpecs) usersProfileCreated;\r\n\r\n    constructor() ERC721(\"AnimeCrypto\", \"AC\") {\r\n      owner = _msgSender();\r\n    }\r\n\r\n    function random(uint256 count) private view returns(uint){\r\n      return uint256(keccak256(abi.encodePacked(block.difficulty, block.timestamp, count)))%5;\r\n    }\r\n\r\n    function createPlayerProfile() public {\r\n      require(!playerExist[_msgSender()]);\r\n      countOfUsersRegistered++;\r\n      uint256 _random = random(countOfUsersRegistered);\r\n      playersInfo[countOfUsersRegistered] = PlayerSpecs(countOfUsersRegistered, _random, 1);\r\n      playerExist[_msgSender()] = true;\r\n    }\r\n\r\n    function fetchCards(address _owner) external view returns(uint256[] memory ownerTokens) {\r\n      uint256 tokenCount = balanceOf(_owner);\r\n\r\n      if (tokenCount == 0) {\r\n        return new uint256[](0);\r\n      } else {\r\n        uint256 _tokenId = 0;\r\n        uint256[] memory result = new uint256[](totalNumberOfCards);\r\n        uint256 resultIndex = 0;\r\n\r\n        for (_tokenId = 1; _tokenId <= totalNumberOfCards; _tokenId++) {\r\n            if (mappingIdToCards[_tokenId] == _owner) {\r\n                result[resultIndex] = _tokenId;\r\n                resultIndex++;\r\n            }\r\n        }\r\n        return result;\r\n      }\r\n    }\r\n\r\n    function createCardsForUser() public {\r\n      require(playerExist[_msgSender()]);\r\n      totalNumberOfCards++;\r\n      _safeMint(_msgSender(), totalNumberOfCards);\r\n      mappingIdToCards[totalNumberOfCards] = _msgSender();\r\n    }\r\n}\r\n\r\n\r\n",
  "sourcePath": "D:\\learn\\learn-blockchain\\only_truffle\\contracts\\AnimeCrypto.sol",
  "compiler": {
    "name": "solc",
    "version": "0.8.0+commit.c7dfd78e.Emscripten.clang"
  },
  "schemaVersion": "3.4.3",
  "updatedAt": "2021-09-14T16:47:22.676Z",
  "networkType": "ethereum",
  "devdoc": {
    "kind": "dev",
    "methods": {
      "approve(address,uint256)": {
        "details": "See {IERC721-approve}."
      },
      "balanceOf(address)": {
        "details": "See {IERC721-balanceOf}."
      },
      "getApproved(uint256)": {
        "details": "See {IERC721-getApproved}."
      },
      "isApprovedForAll(address,address)": {
        "details": "See {IERC721-isApprovedForAll}."
      },
      "name()": {
        "details": "See {IERC721Metadata-name}."
      },
      "ownerOf(uint256)": {
        "details": "See {IERC721-ownerOf}."
      },
      "safeTransferFrom(address,address,uint256)": {
        "details": "See {IERC721-safeTransferFrom}."
      },
      "safeTransferFrom(address,address,uint256,bytes)": {
        "details": "See {IERC721-safeTransferFrom}."
      },
      "setApprovalForAll(address,bool)": {
        "details": "See {IERC721-setApprovalForAll}."
      },
      "supportsInterface(bytes4)": {
        "details": "See {IERC165-supportsInterface}."
      },
      "symbol()": {
        "details": "See {IERC721Metadata-symbol}."
      },
      "tokenURI(uint256)": {
        "details": "See {IERC721Metadata-tokenURI}."
      },
      "transferFrom(address,address,uint256)": {
        "details": "See {IERC721-transferFrom}."
      }
    },
    "version": 1
  },
  "userdoc": {
    "kind": "user",
    "methods": {},
    "version": 1
  }
}