{
  "contractName": "AnimeCrypto",
  "abi": [
    {
      "inputs": [],
      "stateMutability": "nonpayable",
      "type": "constructor"
    },
    {
      "anonymous": false,
      "inputs": [
        {
          "indexed": true,
          "internalType": "address",
          "name": "owner",
          "type": "address"
        },
        {
          "indexed": true,
          "internalType": "address",
          "name": "approved",
          "type": "address"
        },
        {
          "indexed": true,
          "internalType": "uint256",
          "name": "tokenId",
          "type": "uint256"
        }
      ],
      "name": "Approval",
      "type": "event"
    },
    {
      "anonymous": false,
      "inputs": [
        {
          "indexed": true,
          "internalType": "address",
          "name": "owner",
          "type": "address"
        },
        {
          "indexed": true,
          "internalType": "address",
          "name": "operator",
          "type": "address"
        },
        {
          "indexed": false,
          "internalType": "bool",
          "name": "approved",
          "type": "bool"
        }
      ],
      "name": "ApprovalForAll",
      "type": "event"
    },
    {
      "anonymous": false,
      "inputs": [
        {
          "indexed": true,
          "internalType": "address",
          "name": "from",
          "type": "address"
        },
        {
          "indexed": true,
          "internalType": "address",
          "name": "to",
          "type": "address"
        },
        {
          "indexed": true,
          "internalType": "uint256",
          "name": "tokenId",
          "type": "uint256"
        }
      ],
      "name": "Transfer",
      "type": "event"
    },
    {
      "inputs": [
        {
          "internalType": "address",
          "name": "to",
          "type": "address"
        },
        {
          "internalType": "uint256",
          "name": "tokenId",
          "type": "uint256"
        }
      ],
      "name": "approve",
      "outputs": [],
      "stateMutability": "nonpayable",
      "type": "function"
    },
    {
      "inputs": [
        {
          "internalType": "address",
          "name": "owner",
          "type": "address"
        }
      ],
      "name": "balanceOf",
      "outputs": [
        {
          "internalType": "uint256",
          "name": "",
          "type": "uint256"
        }
      ],
      "stateMutability": "view",
      "type": "function",
      "constant": true
    },
    {
      "inputs": [],
      "name": "counter",
      "outputs": [
        {
          "internalType": "uint256",
          "name": "",
          "type": "uint256"
        }
      ],
      "stateMutability": "view",
      "type": "function",
      "constant": true
    },
    {
      "inputs": [
        {
          "internalType": "uint256",
          "name": "tokenId",
          "type": "uint256"
        }
      ],
      "name": "getApproved",
      "outputs": [
        {
          "internalType": "address",
          "name": "",
          "type": "address"
        }
      ],
      "stateMutability": "view",
      "type": "function",
      "constant": true
    },
    {
      "inputs": [
        {
          "internalType": "address",
          "name": "owner",
          "type": "address"
        },
        {
          "internalType": "address",
          "name": "operator",
          "type": "address"
        }
      ],
      "name": "isApprovedForAll",
      "outputs": [
        {
          "internalType": "bool",
          "name": "",
          "type": "bool"
        }
      ],
      "stateMutability": "view",
      "type": "function",
      "constant": true
    },
    {
      "inputs": [],
      "name": "name",
      "outputs": [
        {
          "internalType": "string",
          "name": "",
          "type": "string"
        }
      ],
      "stateMutability": "view",
      "type": "function",
      "constant": true
    },
    {
      "inputs": [],
      "name": "owner",
      "outputs": [
        {
          "internalType": "address",
          "name": "",
          "type": "address"
        }
      ],
      "stateMutability": "view",
      "type": "function",
      "constant": true
    },
    {
      "inputs": [
        {
          "internalType": "uint256",
          "name": "tokenId",
          "type": "uint256"
        }
      ],
      "name": "ownerOf",
      "outputs": [
        {
          "internalType": "address",
          "name": "",
          "type": "address"
        }
      ],
      "stateMutability": "view",
      "type": "function",
      "constant": true
    },
    {
      "inputs": [
        {
          "internalType": "address",
          "name": "from",
          "type": "address"
        },
        {
          "internalType": "address",
          "name": "to",
          "type": "address"
        },
        {
          "internalType": "uint256",
          "name": "tokenId",
          "type": "uint256"
        }
      ],
      "name": "safeTransferFrom",
      "outputs": [],
      "stateMutability": "nonpayable",
      "type": "function"
    },
    {
      "inputs": [
        {
          "internalType": "address",
          "name": "from",
          "type": "address"
        },
        {
          "internalType": "address",
          "name": "to",
          "type": "address"
        },
        {
          "internalType": "uint256",
          "name": "tokenId",
          "type": "uint256"
        },
        {
          "internalType": "bytes",
          "name": "_data",
          "type": "bytes"
        }
      ],
      "name": "safeTransferFrom",
      "outputs": [],
      "stateMutability": "nonpayable",
      "type": "function"
    },
    {
      "inputs": [
        {
          "internalType": "address",
          "name": "operator",
          "type": "address"
        },
        {
          "internalType": "bool",
          "name": "approved",
          "type": "bool"
        }
      ],
      "name": "setApprovalForAll",
      "outputs": [],
      "stateMutability": "nonpayable",
      "type": "function"
    },
    {
      "inputs": [
        {
          "internalType": "bytes4",
          "name": "interfaceId",
          "type": "bytes4"
        }
      ],
      "name": "supportsInterface",
      "outputs": [
        {
          "internalType": "bool",
          "name": "",
          "type": "bool"
        }
      ],
      "stateMutability": "view",
      "type": "function",
      "constant": true
    },
    {
      "inputs": [],
      "name": "symbol",
      "outputs": [
        {
          "internalType": "string",
          "name": "",
          "type": "string"
        }
      ],
      "stateMutability": "view",
      "type": "function",
      "constant": true
    },
    {
      "inputs": [
        {
          "internalType": "uint256",
          "name": "tokenId",
          "type": "uint256"
        }
      ],
      "name": "tokenURI",
      "outputs": [
        {
          "internalType": "string",
          "name": "",
          "type": "string"
        }
      ],
      "stateMutability": "view",
      "type": "function",
      "constant": true
    },
    {
      "inputs": [
        {
          "internalType": "address",
          "name": "from",
          "type": "address"
        },
        {
          "internalType": "address",
          "name": "to",
          "type": "address"
        },
        {
          "internalType": "uint256",
          "name": "tokenId",
          "type": "uint256"
        }
      ],
      "name": "transferFrom",
      "outputs": [],
      "stateMutability": "nonpayable",
      "type": "function"
    },
    {
      "inputs": [
        {
          "internalType": "string",
          "name": "_color",
          "type": "string"
        }
      ],
      "name": "mint",
      "outputs": [],
      "stateMutability": "nonpayable",
      "type": "function"
    }
  ],
  "bytecode": "0x60806040523480156200001157600080fd5b506040518060400160405280600b81526020017f416e696d6543727970746f0000000000000000000000000000000000000000008152506040518060400160405280600281526020017f414300000000000000000000000000000000000000000000000000000000000081525081600090805190602001906200009692919062000119565b508060019080519060200190620000af92919062000119565b505050620000cb62000111640100000000026401000000009004565b600760006101000a81548173ffffffffffffffffffffffffffffffffffffffff021916908373ffffffffffffffffffffffffffffffffffffffff1602179055506200022e565b600033905090565b8280546200012790620001c9565b90600052602060002090601f0160209004810192826200014b576000855562000197565b82601f106200016657805160ff191683800117855562000197565b8280016001018555821562000197579182015b828111156200019657825182559160200191906001019062000179565b5b509050620001a69190620001aa565b5090565b5b80821115620001c5576000816000905550600101620001ab565b5090565b60006002820490506001821680620001e257607f821691505b60208210811415620001f957620001f8620001ff565b5b50919050565b7f4e487b7100000000000000000000000000000000000000000000000000000000600052602260045260246000fd5b6124f4806200023e6000396000f3fe608060405234801561001057600080fd5b506004361061011d576000357c01000000000000000000000000000000000000000000000000000000009004806370a08231116100b4578063b88d4fde11610083578063b88d4fde146102ca578063c87b56dd146102e6578063d85d3d2714610316578063e985e9c5146103325761011d565b806370a08231146102425780638da5cb5b1461027257806395d89b4114610290578063a22cb465146102ae5761011d565b806323b872dd116100f057806323b872dd146101bc57806342842e0e146101d857806361bc221a146101f45780636352211e146102125761011d565b806301ffc9a71461012257806306fdde0314610152578063081812fc14610170578063095ea7b3146101a0575b600080fd5b61013c60048036038101906101379190611813565b610362565b6040516101499190611ecc565b60405180910390f35b61015a610444565b6040516101679190611ee7565b60405180910390f35b61018a600480360381019061018591906118a6565b6104d6565b6040516101979190611e65565b60405180910390f35b6101ba60048036038101906101b591906117d7565b61055b565b005b6101d660048036038101906101d191906116d1565b610673565b005b6101f260048036038101906101ed91906116d1565b6106d3565b005b6101fc6106f3565b6040516102099190612089565b60405180910390f35b61022c600480360381019061022791906118a6565b6106f9565b6040516102399190611e65565b60405180910390f35b61025c6004803603810190610257919061166c565b6107ab565b6040516102699190612089565b60405180910390f35b61027a610863565b6040516102879190611e65565b60405180910390f35b610298610889565b6040516102a59190611ee7565b60405180910390f35b6102c860048036038101906102c3919061179b565b61091b565b005b6102e460048036038101906102df9190611720565b610a9c565b005b61030060048036038101906102fb91906118a6565b610afe565b60405161030d9190611ee7565b60405180910390f35b610330600480360381019061032b9190611865565b610ba5565b005b61034c60048036038101906103479190611695565b610ba8565b6040516103599190611ecc565b60405180910390f35b60007f80ac58cd000000000000000000000000000000000000000000000000000000007bffffffffffffffffffffffffffffffffffffffffffffffffffffffff1916827bffffffffffffffffffffffffffffffffffffffffffffffffffffffff1916148061042d57507f5b5e139f000000000000000000000000000000000000000000000000000000007bffffffffffffffffffffffffffffffffffffffffffffffffffffffff1916827bffffffffffffffffffffffffffffffffffffffffffffffffffffffff1916145b8061043d575061043c82610c3c565b5b9050919050565b606060008054610453906122e9565b80601f016020809104026020016040519081016040528092919081815260200182805461047f906122e9565b80156104cc5780601f106104a1576101008083540402835291602001916104cc565b820191906000526020600020905b8154815290600101906020018083116104af57829003601f168201915b5050505050905090565b60006104e182610ca6565b610520576040517f08c379a000000000000000000000000000000000000000000000000000000000815260040161051790611fe9565b60405180910390fd5b6004600083815260200190815260200160002060009054906101000a900473ffffffffffffffffffffffffffffffffffffffff169050919050565b6000610566826106f9565b90508073ffffffffffffffffffffffffffffffffffffffff168373ffffffffffffffffffffffffffffffffffffffff1614156105d7576040517f08c379a00000000000000000000000000000000000000000000000000000000081526004016105ce90612049565b60405180910390fd5b8073ffffffffffffffffffffffffffffffffffffffff166105f6610d12565b73ffffffffffffffffffffffffffffffffffffffff16148061062557506106248161061f610d12565b610ba8565b5b610664576040517f08c379a000000000000000000000000000000000000000000000000000000000815260040161065b90611f89565b60405180910390fd5b61066e8383610d1a565b505050565b61068461067e610d12565b82610dd3565b6106c3576040517f08c379a00000000000000000000000000000000000000000000000000000000081526004016106ba90612069565b60405180910390fd5b6106ce838383610eb1565b505050565b6106ee83838360405180602001604052806000815250610a9c565b505050565b60065481565b6000806002600084815260200190815260200160002060009054906101000a900473ffffffffffffffffffffffffffffffffffffffff169050600073ffffffffffffffffffffffffffffffffffffffff168173ffffffffffffffffffffffffffffffffffffffff1614156107a2576040517f08c379a000000000000000000000000000000000000000000000000000000000815260040161079990611fc9565b60405180910390fd5b80915050919050565b60008073ffffffffffffffffffffffffffffffffffffffff168273ffffffffffffffffffffffffffffffffffffffff16141561081c576040517f08c379a000000000000000000000000000000000000000000000000000000000815260040161081390611fa9565b60405180910390fd5b600360008373ffffffffffffffffffffffffffffffffffffffff1673ffffffffffffffffffffffffffffffffffffffff168152602001908152602001600020549050919050565b600760009054906101000a900473ffffffffffffffffffffffffffffffffffffffff1681565b606060018054610898906122e9565b80601f01602080910402602001604051908101604052809291908181526020018280546108c4906122e9565b80156109115780601f106108e657610100808354040283529160200191610911565b820191906000526020600020905b8154815290600101906020018083116108f457829003601f168201915b5050505050905090565b610923610d12565b73ffffffffffffffffffffffffffffffffffffffff168273ffffffffffffffffffffffffffffffffffffffff161415610991576040517f08c379a000000000000000000000000000000000000000000000000000000000815260040161098890611f49565b60405180910390fd5b806005600061099e610d12565b73ffffffffffffffffffffffffffffffffffffffff1673ffffffffffffffffffffffffffffffffffffffff16815260200190815260200160002060008473ffffffffffffffffffffffffffffffffffffffff1673ffffffffffffffffffffffffffffffffffffffff16815260200190815260200160002060006101000a81548160ff0219169083151502179055508173ffffffffffffffffffffffffffffffffffffffff16610a4b610d12565b73ffffffffffffffffffffffffffffffffffffffff167f17307eab39ab6107e8899845ad3d59bd9653f200f220920489ca2b5937696c3183604051610a909190611ecc565b60405180910390a35050565b610aad610aa7610d12565b83610dd3565b610aec576040517f08c379a0000000000000000000000000000000000000000000000000000000008152600401610ae390612069565b60405180910390fd5b610af88484848461110d565b50505050565b6060610b0982610ca6565b610b48576040517f08c379a0000000000000000000000000000000000000000000000000000000008152600401610b3f90612029565b60405180910390fd5b6000610b52611169565b90506000815111610b725760405180602001604052806000815250610b9d565b80610b7c84611180565b604051602001610b8d929190611e41565b6040516020818303038152906040525b915050919050565b50565b6000600560008473ffffffffffffffffffffffffffffffffffffffff1673ffffffffffffffffffffffffffffffffffffffff16815260200190815260200160002060008373ffffffffffffffffffffffffffffffffffffffff1673ffffffffffffffffffffffffffffffffffffffff16815260200190815260200160002060009054906101000a900460ff16905092915050565b60007f01ffc9a7000000000000000000000000000000000000000000000000000000007bffffffffffffffffffffffffffffffffffffffffffffffffffffffff1916827bffffffffffffffffffffffffffffffffffffffffffffffffffffffff1916149050919050565b60008073ffffffffffffffffffffffffffffffffffffffff166002600084815260200190815260200160002060009054906101000a900473ffffffffffffffffffffffffffffffffffffffff1673ffffffffffffffffffffffffffffffffffffffff1614159050919050565b600033905090565b816004600083815260200190815260200160002060006101000a81548173ffffffffffffffffffffffffffffffffffffffff021916908373ffffffffffffffffffffffffffffffffffffffff160217905550808273ffffffffffffffffffffffffffffffffffffffff16610d8d836106f9565b73ffffffffffffffffffffffffffffffffffffffff167f8c5be1e5ebec7d5bd14f71427d1e84f3dd0314c0f7b2291e5b200ac8c7c3b92560405160405180910390a45050565b6000610dde82610ca6565b610e1d576040517f08c379a0000000000000000000000000000000000000000000000000000000008152600401610e1490611f69565b60405180910390fd5b6000610e28836106f9565b90508073ffffffffffffffffffffffffffffffffffffffff168473ffffffffffffffffffffffffffffffffffffffff161480610e9757508373ffffffffffffffffffffffffffffffffffffffff16610e7f846104d6565b73ffffffffffffffffffffffffffffffffffffffff16145b80610ea85750610ea78185610ba8565b5b91505092915050565b8273ffffffffffffffffffffffffffffffffffffffff16610ed1826106f9565b73ffffffffffffffffffffffffffffffffffffffff1614610f27576040517f08c379a0000000000000000000000000000000000000000000000000000000008152600401610f1e90612009565b60405180910390fd5b600073ffffffffffffffffffffffffffffffffffffffff168273ffffffffffffffffffffffffffffffffffffffff161415610f97576040517f08c379a0000000000000000000000000000000000000000000000000000000008152600401610f8e90611f29565b60405180910390fd5b610fa283838361134c565b610fad600082610d1a565b6001600360008573ffffffffffffffffffffffffffffffffffffffff1673ffffffffffffffffffffffffffffffffffffffff1681526020019081526020016000206000828254610ffd91906121ff565b925050819055506001600360008473ffffffffffffffffffffffffffffffffffffffff1673ffffffffffffffffffffffffffffffffffffffff16815260200190815260200160002060008282546110549190612178565b92505081905550816002600083815260200190815260200160002060006101000a81548173ffffffffffffffffffffffffffffffffffffffff021916908373ffffffffffffffffffffffffffffffffffffffff160217905550808273ffffffffffffffffffffffffffffffffffffffff168473ffffffffffffffffffffffffffffffffffffffff167fddf252ad1be2c89b69c2b068fc378daa952ba7f163c4a11628f55a4df523b3ef60405160405180910390a4505050565b611118848484610eb1565b61112484848484611351565b611163576040517f08c379a000000000000000000000000000000000000000000000000000000000815260040161115a90611f09565b60405180910390fd5b50505050565b606060405180602001604052806000815250905090565b606060008214156111c8576040518060400160405280600181526020017f30000000000000000000000000000000000000000000000000000000000000008152509050611347565b600082905060005b600082146111fa5780806111e39061231b565b915050600a826111f391906121ce565b91506111d0565b60008167ffffffffffffffff81111561123c577f4e487b7100000000000000000000000000000000000000000000000000000000600052604160045260246000fd5b6040519080825280601f01601f19166020018201604052801561126e5781602001600182028036833780820191505090505b5090505b600085146113405760018261128791906121ff565b9150600a856112969190612364565b60306112a29190612178565b7f0100000000000000000000000000000000000000000000000000000000000000028183815181106112fd577f4e487b7100000000000000000000000000000000000000000000000000000000600052603260045260246000fd5b60200101907effffffffffffffffffffffffffffffffffffffffffffffffffffffffffffff1916908160001a905350600a8561133991906121ce565b9450611272565b8093505050505b919050565b505050565b60006113728473ffffffffffffffffffffffffffffffffffffffff16611520565b15611513578373ffffffffffffffffffffffffffffffffffffffff1663150b7a0261139b610d12565b8786866040518563ffffffff167c01000000000000000000000000000000000000000000000000000000000281526004016113d99493929190611e80565b602060405180830381600087803b1580156113f357600080fd5b505af192505050801561142457506040513d601f19601f82011682018060405250810190611421919061183c565b60015b6114a7573d8060008114611454576040519150601f19603f3d011682016040523d82523d6000602084013e611459565b606091505b5060008151141561149f576040517f08c379a000000000000000000000000000000000000000000000000000000000815260040161149690611f09565b60405180910390fd5b805181602001fd5b63150b7a027c0100000000000000000000000000000000000000000000000000000000027bffffffffffffffffffffffffffffffffffffffffffffffffffffffff1916817bffffffffffffffffffffffffffffffffffffffffffffffffffffffff191614915050611518565b600190505b949350505050565b600080823b905060008111915050919050565b6000611546611541846120d5565b6120a4565b90508281526020810184848401111561155e57600080fd5b6115698482856122a7565b509392505050565b600061158461157f84612105565b6120a4565b90508281526020810184848401111561159c57600080fd5b6115a78482856122a7565b509392505050565b6000813590506115be81612462565b92915050565b6000813590506115d381612479565b92915050565b6000813590506115e881612490565b92915050565b6000815190506115fd81612490565b92915050565b600082601f83011261161457600080fd5b8135611624848260208601611533565b91505092915050565b600082601f83011261163e57600080fd5b813561164e848260208601611571565b91505092915050565b600081359050611666816124a7565b92915050565b60006020828403121561167e57600080fd5b600061168c848285016115af565b91505092915050565b600080604083850312156116a857600080fd5b60006116b6858286016115af565b92505060206116c7858286016115af565b9150509250929050565b6000806000606084860312156116e657600080fd5b60006116f4868287016115af565b9350506020611705868287016115af565b925050604061171686828701611657565b9150509250925092565b6000806000806080858703121561173657600080fd5b6000611744878288016115af565b9450506020611755878288016115af565b935050604061176687828801611657565b925050606085013567ffffffffffffffff81111561178357600080fd5b61178f87828801611603565b91505092959194509250565b600080604083850312156117ae57600080fd5b60006117bc858286016115af565b92505060206117cd858286016115c4565b9150509250929050565b600080604083850312156117ea57600080fd5b60006117f8858286016115af565b925050602061180985828601611657565b9150509250929050565b60006020828403121561182557600080fd5b6000611833848285016115d9565b91505092915050565b60006020828403121561184e57600080fd5b600061185c848285016115ee565b91505092915050565b60006020828403121561187757600080fd5b600082013567ffffffffffffffff81111561189157600080fd5b61189d8482850161162d565b91505092915050565b6000602082840312156118b857600080fd5b60006118c684828501611657565b91505092915050565b6118d881612233565b82525050565b6118e781612245565b82525050565b60006118f882612135565b611902818561214b565b93506119128185602086016122b6565b61191b81612451565b840191505092915050565b600061193182612140565b61193b818561215c565b935061194b8185602086016122b6565b61195481612451565b840191505092915050565b600061196a82612140565b611974818561216d565b93506119848185602086016122b6565b80840191505092915050565b600061199d60328361215c565b91507f4552433732313a207472616e7366657220746f206e6f6e20455243373231526560008301527f63656976657220696d706c656d656e74657200000000000000000000000000006020830152604082019050919050565b6000611a0360248361215c565b91507f4552433732313a207472616e7366657220746f20746865207a65726f2061646460008301527f72657373000000000000000000000000000000000000000000000000000000006020830152604082019050919050565b6000611a6960198361215c565b91507f4552433732313a20617070726f766520746f2063616c6c6572000000000000006000830152602082019050919050565b6000611aa9602c8361215c565b91507f4552433732313a206f70657261746f7220717565727920666f72206e6f6e657860008301527f697374656e7420746f6b656e00000000000000000000000000000000000000006020830152604082019050919050565b6000611b0f60388361215c565b91507f4552433732313a20617070726f76652063616c6c6572206973206e6f74206f7760008301527f6e6572206e6f7220617070726f76656420666f7220616c6c00000000000000006020830152604082019050919050565b6000611b75602a8361215c565b91507f4552433732313a2062616c616e636520717565727920666f7220746865207a6560008301527f726f2061646472657373000000000000000000000000000000000000000000006020830152604082019050919050565b6000611bdb60298361215c565b91507f4552433732313a206f776e657220717565727920666f72206e6f6e657869737460008301527f656e7420746f6b656e00000000000000000000000000000000000000000000006020830152604082019050919050565b6000611c41602c8361215c565b91507f4552433732313a20617070726f76656420717565727920666f72206e6f6e657860008301527f697374656e7420746f6b656e00000000000000000000000000000000000000006020830152604082019050919050565b6000611ca760298361215c565b91507f4552433732313a207472616e73666572206f6620746f6b656e2074686174206960008301527f73206e6f74206f776e00000000000000000000000000000000000000000000006020830152604082019050919050565b6000611d0d602f8361215c565b91507f4552433732314d657461646174613a2055524920717565727920666f72206e6f60008301527f6e6578697374656e7420746f6b656e00000000000000000000000000000000006020830152604082019050919050565b6000611d7360218361215c565b91507f4552433732313a20617070726f76616c20746f2063757272656e74206f776e6560008301527f72000000000000000000000000000000000000000000000000000000000000006020830152604082019050919050565b6000611dd960318361215c565b91507f4552433732313a207472616e736665722063616c6c6572206973206e6f74206f60008301527f776e6572206e6f7220617070726f7665640000000000000000000000000000006020830152604082019050919050565b611e3b8161229d565b82525050565b6000611e4d828561195f565b9150611e59828461195f565b91508190509392505050565b6000602082019050611e7a60008301846118cf565b92915050565b6000608082019050611e9560008301876118cf565b611ea260208301866118cf565b611eaf6040830185611e32565b8181036060830152611ec181846118ed565b905095945050505050565b6000602082019050611ee160008301846118de565b92915050565b60006020820190508181036000830152611f018184611926565b905092915050565b60006020820190508181036000830152611f2281611990565b9050919050565b60006020820190508181036000830152611f42816119f6565b9050919050565b60006020820190508181036000830152611f6281611a5c565b9050919050565b60006020820190508181036000830152611f8281611a9c565b9050919050565b60006020820190508181036000830152611fa281611b02565b9050919050565b60006020820190508181036000830152611fc281611b68565b9050919050565b60006020820190508181036000830152611fe281611bce565b9050919050565b6000602082019050818103600083015261200281611c34565b9050919050565b6000602082019050818103600083015261202281611c9a565b9050919050565b6000602082019050818103600083015261204281611d00565b9050919050565b6000602082019050818103600083015261206281611d66565b9050919050565b6000602082019050818103600083015261208281611dcc565b9050919050565b600060208201905061209e6000830184611e32565b92915050565b6000604051905081810181811067ffffffffffffffff821117156120cb576120ca612422565b5b8060405250919050565b600067ffffffffffffffff8211156120f0576120ef612422565b5b601f19601f8301169050602081019050919050565b600067ffffffffffffffff8211156121205761211f612422565b5b601f19601f8301169050602081019050919050565b600081519050919050565b600081519050919050565b600082825260208201905092915050565b600082825260208201905092915050565b600081905092915050565b60006121838261229d565b915061218e8361229d565b9250827fffffffffffffffffffffffffffffffffffffffffffffffffffffffffffffffff038211156121c3576121c2612395565b5b828201905092915050565b60006121d98261229d565b91506121e48361229d565b9250826121f4576121f36123c4565b5b828204905092915050565b600061220a8261229d565b91506122158361229d565b92508282101561222857612227612395565b5b828203905092915050565b600061223e8261227d565b9050919050565b60008115159050919050565b60007fffffffff0000000000000000000000000000000000000000000000000000000082169050919050565b600073ffffffffffffffffffffffffffffffffffffffff82169050919050565b6000819050919050565b82818337600083830152505050565b60005b838110156122d45780820151818401526020810190506122b9565b838111156122e3576000848401525b50505050565b6000600282049050600182168061230157607f821691505b60208210811415612315576123146123f3565b5b50919050565b60006123268261229d565b91507fffffffffffffffffffffffffffffffffffffffffffffffffffffffffffffffff82141561235957612358612395565b5b600182019050919050565b600061236f8261229d565b915061237a8361229d565b92508261238a576123896123c4565b5b828206905092915050565b7f4e487b7100000000000000000000000000000000000000000000000000000000600052601160045260246000fd5b7f4e487b7100000000000000000000000000000000000000000000000000000000600052601260045260246000fd5b7f4e487b7100000000000000000000000000000000000000000000000000000000600052602260045260246000fd5b7f4e487b7100000000000000000000000000000000000000000000000000000000600052604160045260246000fd5b6000601f19601f8301169050919050565b61246b81612233565b811461247657600080fd5b50565b61248281612245565b811461248d57600080fd5b50565b61249981612251565b81146124a457600080fd5b50565b6124b08161229d565b81146124bb57600080fd5b5056fea264697066735822122045ce5f59cfdd51420d801cf8ce6d09ac93e5aebfde6e7cee2827c78d663d8b8264736f6c63430008000033",
  "immutableReferences": {},
  "source": "// SPDX-License-Identifier: MIT\r\npragma solidity >=0.4.22 <0.9.0;\r\n// import \"@openzeppelin/contracts/token/ERC721/ERC721.sol\";\r\nimport \"./ERC721_flattened.sol\";\r\n\r\ncontract AnimeCrypto is ERC721 {\r\n    uint256 public counter;\r\n    address public owner;\r\n\r\n    constructor() ERC721(\"AnimeCrypto\", \"AC\") {\r\n      owner = _msgSender();\r\n    }\r\n\r\n    function mint(string memory _color) public{\r\n        // require(!_colorExists[_color]);\r\n        // colors.push(_color);\r\n        // counter++;\r\n        // _safeMint(msg.sender, counter);\r\n        // _colorExists[_color] = true;\r\n    }\r\n}\r\n\r\n\r\n",
  "sourcePath": "D:\\learn\\learn-blockchain\\only_truffle\\contracts\\AnimeCrypto.sol",
  "compiler": {
    "name": "solc",
    "version": "0.8.0+commit.c7dfd78e.Emscripten.clang"
  },
  "schemaVersion": "3.4.3",
  "updatedAt": "2021-09-12T19:26:31.156Z",
  "networkType": "ethereum",
  "devdoc": {
    "kind": "dev",
    "methods": {
      "approve(address,uint256)": {
        "details": "See {IERC721-approve}."
      },
      "balanceOf(address)": {
        "details": "See {IERC721-balanceOf}."
      },
      "getApproved(uint256)": {
        "details": "See {IERC721-getApproved}."
      },
      "isApprovedForAll(address,address)": {
        "details": "See {IERC721-isApprovedForAll}."
      },
      "name()": {
        "details": "See {IERC721Metadata-name}."
      },
      "ownerOf(uint256)": {
        "details": "See {IERC721-ownerOf}."
      },
      "safeTransferFrom(address,address,uint256)": {
        "details": "See {IERC721-safeTransferFrom}."
      },
      "safeTransferFrom(address,address,uint256,bytes)": {
        "details": "See {IERC721-safeTransferFrom}."
      },
      "setApprovalForAll(address,bool)": {
        "details": "See {IERC721-setApprovalForAll}."
      },
      "supportsInterface(bytes4)": {
        "details": "See {IERC165-supportsInterface}."
      },
      "symbol()": {
        "details": "See {IERC721Metadata-symbol}."
      },
      "tokenURI(uint256)": {
        "details": "See {IERC721Metadata-tokenURI}."
      },
      "transferFrom(address,address,uint256)": {
        "details": "See {IERC721-transferFrom}."
      }
    },
    "version": 1
  },
  "userdoc": {
    "kind": "user",
    "methods": {},
    "version": 1
  }
}